:020000040800F2
:1000000020090020A90100088D4800087740000859
:100010008948000855150008A14E0008000000009E
:10002000000000000000000000000000194A000865
:100030009515000800000000914800081B4A0008C0
:10004000C3010008C3010008C3010008C301000880
:10005000C3010008C3010008C3010008C301000870
:10006000C3010008C3010008C301000859150008B6
:10007000C3010008C3010008C3010008C301000850
:10008000C3010008C3010008C3010008C301000840
:10009000C3010008C3010008C30100089715000848
:1000A000C3010008C3010008C3010008C301000820
:1000B000A54A0008C3010008C3010008C3010008E5
:1000C000C3010008C3010008C3010008C301000800
:1000D000C3010008914E0008C3010008C3010008D5
:1000E000C3010008C3010008C301000800F002F8C2
:1000F00000F04AF80AA090E8000C82448344AAF178
:100100000107DA4501D100F03FF8AFF2090EBAE875
:100110000F0013F0010F18BFFB1A43F0010318473B
:10012000F05C0000105D0000103A24BF78C878C170
:10013000FAD8520724BF30C830C144BF04680C60ED
:10014000704700000023002400250026103A28BF35
:1001500078C1FBD8520728BF30C148BF0B60704739
:10016000662905F0F385642900F07A800020704745
:100170001FB500F0FDFB04000020002105F0CCF8C5
:10018000E0601FBD10B510BD00F0F2FC1146FFF796
:10019000EFFF04F07FFF00F010FD03B4FFF7F2FF64
:1001A00003BC00F053FD00000948804709480047A0
:1001B000FEE7FEE7FEE7FEE7FEE7FEE7FEE7FEE717
:1001C000FEE7FEE704480549054A064B7047000074
:1001D000A34A0008ED0000082003002020090020A9
:1001E00020050020200500200FB41CB5074B06AAEF
:1001F0007B4469460090059800F0A1FB0020694609
:1002000000F0B0FB1CBC5DF814FB0000710700009F
:1002100070B5044685690068C10601D5302600E046
:100220002026C00707D070BDD4E901213046904791
:10023000206A401C20626D1EF6D570BD70B5044664
:1002400085690078C00707D170BDD4E9012120205D
:100250009047206A401C20626D1EF6D570BD0000DC
:100260002DE9F0410646002410687529314616A58F
:1002700010D0AFF30080002802DA404213A507E057
:1002800031688A0701D512A502E0490704D511A5F6
:10029000012401E0AFF3008000210A2206F12407C7
:1002A00009E0B0FBF2FCB0FBF2F302FB1C003030C3
:1002B00078541846491C0028F3D123462A46304674
:1002C000BDE8F04100F0CEB8000000002D000000B5
:1002D0002B000000200000002DE9F05F8946044655
:1002E0004FF0000ADFF824B1FB44C0F820A02046FC
:1002F000E168884700287DD0252806D0D4E901216F
:100300009047206A401C2062F1E700255F462046A6
:10031000E16888472028064607DB312E05D2B81948
:1003200010F8200C08B10543F1E7A80701D525F026
:100330000405C4F81CA00027C4F818A02A2E09D070
:10034000304604F0DFFD38B304EB8708303EC8F8D0
:10035000186019E059F8041B204604EB87029161EC
:10036000E1688847012F064618D1E069002820DAA5
:1003700025F020051DE0D8F8180000EB800006EB02
:1003800040003038C8F818002046E1688847064623
:1003900004F0B8FD0028EED1012F0AD02E2E08D18E
:1003A0002046E16888477F1C0646022F45F020055D
:1003B000C4DBA069002803DA404245F00105A061D2
:1003C000E80701D025F01005A6B1A6F141001928D3
:1003D00002D8203645F400654A463146204625605D
:1003E0004D46FFF7BDFE60B1012807D0ED1D25F099
:1003F000070000E007E000F1080978E705F10409CB
:1004000075E730467AE7206ABDE8F09F7C5A000025
:100410004FF0000200B5134694469646203922BF9D
:10042000A0E80C50A0E80C50B1F12001BFF4F7AFE8
:10043000090728BFA0E80C5048BF0CC05DF804EBCA
:10044000890028BF40F8042B08BF704748BF20F838
:10045000022B11F0804F18BF00F8012B7047704736
:10046000704770472DE9F0470D469946924604467D
:1004700000F124080168880604D5E06921F0100124
:10048000216000E00120A84201DD471B00E00027B9
:10049000A1697A1902EB0900081AA0612078C00648
:1004A00002D42046FFF7B4FE002608E0D4E901217B
:1004B0001AF806009047206A401C761C20624E45C0
:1004C000F4DB2078C0060AD52046FFF7A1FE06E03F
:1004D000D4E9012130209047206A401C2062381E58
:1004E000A7F10107F4DC07E0D4E9012118F80500C1
:1004F0009047206A401C2062281EA5F10105F3DC0C
:100500002046FFF79BFE2078000602D50220BDE8BA
:10051000F0870120FBE770472DE9FF4F0C461E4690
:100520004FF0FF378BB0D2E90001DDF860800A9010
:100530008A46C1F30A5505B93D46002108464FF0E9
:100540000000BAF1000F00F4400005DA00EB800073
:100550004FF4400101EA50004FEA9059B9F1010F00
:1005600000DDB9460A9850EA4A000ED044F6105011
:10057000A5F2FF3545432F14B8F1000F1ED0754288
:10058000291E1EDDC9F100021CE0B8F1010F4FF079
:10059000000001D0302103E0F24305E02154401C6B
:1005A000B042FBDB30460022002121540B99C1F8F8
:1005B0000880C1E900200FB0BDE8F08FBD1B6D1CA5
:1005C000DEE74A4600DA694206A800F05BFA06ABAD
:1005D00093E8070003AB83E8070050460A9900F050
:1005E0003CFB8DE80700A0F500501F3800900398F1
:1005F000002D0ADD42F21F014A460844002303A9E8
:100600000390684600F0A5FD09E0A0F500504A46B9
:100610001F38002303A90390684600F0AFFD8DE862
:1006200007000004000C03D04FF0FF30410800E049
:100630001046B8F1000F03D00022009215461EE0CC
:10064000751E05D400F098F9303262556D1EF9D54B
:10065000B3460122084302D000227F1C04E0207828
:10066000302801D100227F1E002A099784D01DE086
:10067000112D07DA00F080F9303262556D1C50EA16
:100680000102F5D1084302D00098C8B10EE0002164
:10069000681E05E0235C625C63542254401E491CC2
:1006A0008142F7DBAB46A81B401E0990002004F8EE
:1006B0000B000B98099AC0F80880C0E9002B7AE774
:1006C00011264FF0000857E72DE9F04F8846044601
:1006D000D21D22F0070191B0D1E90001CDE90A0154
:1006E00004F0E0FB02460B98C00F01D02D2007E07C
:1006F0002068810701D52B2002E0202101EAC000FB
:10070000032A099001D0072A05DB0346414620460B
:1007100000F078F90BE12078800601D5E06900E06F
:100720000620B8F1650F814606D0B8F1660F18D0E3
:10073000B8F1670F70D131E00020B9F1110F0090CE
:1007400001DB112301E009F101030AAA01A90CA8A8
:10075000FFF7E2FEDDE90C70002609F10105834692
:1007600047E001204B4600904FF000470AAA01A93C
:100770000CA8FFF7D1FEDDE90DB00C995D4600260F
:1007800010B909F101000D18B9EB050003D4C0F14F
:10079000FF3609F10105A5EB09002BE0B9F1010FC6
:1007A00001DA4FF001090020B9F1110F009048461D
:1007B00001DD112300E003460AAA01A90CA8FFF7F6
:1007C000ABFEDDE90C704D4600268346207800071D
:1007D0000AD4AB4500DA5D4601A8012D04DD4119BC
:1007E00011F8011C302907D04F4502DA17F1040F28
:1007F00004DA012082460FE06D1EEEE7002F02DCD6
:10080000ED1B3E4403E0781CA84200DD7D1CB81BB4
:1008100000F1010A4FF000472078000703D4AA45F1
:1008200001DB4FF0FF3A0021B7F1004F0DF1430813
:100830008DF8431024D002202B23002F01DA7F42B1
:100840002D230A21021EA0F1010000DC5FB197FBFD
:10085000F1FC97FBF1F201FB1C7C17460CF1300C0C
:1008600008F801CDEEE7A8F1010003702188090521
:1008700001D5452100E06521A0F1010800F8011C27
:1008800009980FA9A1EB0807FF1D00B1012041192C
:1008900001EBEA70A1693844081A401EA061207873
:1008A000C00602D42046FFF7B3FC099828B1D4E96A
:1008B00001219047206A401C20622078C00622D582
:1008C0002046FFF7A5FC1EE0002E04DBB34502DD49
:1008D00001A8805D00E03020D4E901219047206A22
:1008E000401C2062761CAAF101005FEA000A0AD1CE
:1008F00000F03EF8C0680168405CD4E901219047EF
:10090000206A401C2062281EA5F10105DCDC07E0FE
:10091000D4E9012118F8010B9047206A401C20629D
:10092000381EA7F10107F3DC2046FFF787FC032000
:1009300011B041E601694A1C02610878704700B5B0
:100940008FB0CDE901310021059105497944CDE908
:10095000031011466846FFF7BFFC0FB000BD000052
:10096000E5FFFFFF0A6802F8010B0A60704700000C
:1009700000487047DC02002030B5B0F10A024FEAAF
:10098000900E71F100034EEA817EB0EB0E0061EB38
:1009900091014FEA101E4EEA017E10EB0E0041EB72
:1009A00011114FEA102E4EEA016E10EB0E0041EBD2
:1009B00011214FEA104E4EEA014E10EB0E0041EBB2
:1009C0001141401841F100014FEAD00040EA417066
:1009D0004FEAD10110EB80054FEA810444EA90749C
:1009E00044EB01046D1944EB0404521BA3414FF086
:1009F000000348BF0A3200D530BD401C41F1000160
:100A000030BD00002DE9F0411F4604460326016871
:100A1000072A01F4006004DB08B116A505E016A55D
:100A200003E008B115A500E015A521F01000206035
:100A3000A069C01EA0610FB1401EA0612046FFF753
:100A4000E7FB4FB1D4E9012138469047206A401CAA
:100A50002062C01C206206E0206AFAE7D4E9012186
:100A600015F8010B9047761EF8D22046FFF7E6FBFB
:100A7000BDE8F0814E414E006E616E00494E460069
:100A8000696E66002DE9F047814616468AB0354802
:100A900078440DC88DE80D0032487844801C03ACC2
:100AA0000DC884E80D0041F69B300844372190FBC7
:100AB000F1F290FBF1F5A5F1800501FB12041B3C5E
:100AC00002D56442012000E00020DFF898A08046B3
:100AD0000027FA44AAF1BE0A0EE0E0070AD0324627
:100AE000684607EB470101230AEB810100F046FB52
:100AF0008DE8070064107F1C002CEED1194F7F4455
:100B0000AE3F19E0E80715D007EB04100DF1180A05
:100B100090E80E008AE80E00C068F04201D19819F2
:100B200008903246012306A903A800F027FB03AB77
:100B300083E807006D10641C002DE3D14FF0010322
:100B400032466946B8F1000F03A802D000F001FB5D
:100B500001E000F013FBC9E90001C9F808200AB060
:100B6000BDE8F0876453000000487047BC020020D5
:100B70007546FFF7F9FFAE4605006946534620F07B
:100B80000700854618B020B5FFF71CFBBDE82040E4
:100B90004FF000064FF000074FF000084FF0000B39
:100BA00021F00701AC46ACE8C009ACE8C009ACE8EC
:100BB000C009ACE8C0098D46704710B50446AFF3D4
:100BC00000802046BDE81040FFF7E7BA4FF0013C37
:100BD00050F8042B51F8043B9A4221D1A2EB0C03AC
:100BE000934313EACC1317D150F8042B51F8043B6C
:100BF0009A4215D1A2EB0C03934313EACC130BD109
:100C000050F8042B51F8043B9A4209D1A2EB0C0393
:100C1000934313EACC13DBD04FF00000704700BFC2
:100C2000D01A01BAB1FA81F101F0180122FA01F0EB
:100C3000CB40C1F12001DBB2C0B2C01A2CFA01F3E3
:100C4000D11A914311EAC311E6D170470149182026
:100C5000ABBEFEE72600020070475FEA400C08BF0B
:100C600091F0000F4FEA8C234FEAC12243EA515121
:100C70004FEA1C5018BF00F5F0404FEA300018BF93
:100C800041F000415FEA6C5C00F02980BCF1FF3F5D
:100C900008BF40F080407047130C06BF12044FF0AD
:100CA000100C4FF0000C130E04BF12020CF1080CD4
:100CB000130F04BF12010CF1040C930F04BF920038
:100CC0000CF1020CD30F04BF52000CF1010C1146C1
:100CD0004FF00002A0F11F00A0EB0C00704711F0D4
:100CE000004F08BF704731F000413FF4D5AF0B0C07
:100CF00006BF09044FF0100C4FF0000C0B0E04BFA0
:100D000009020CF1080C0B0F04BF09010CF1040CD3
:100D10008B0F04BF89000CF1020CCB0F04BF4900FC
:100D20000CF1010CCCF12003A0EB0C0022FA03F330
:100D300002FA0CF241EA030100F10100704720F0D1
:100D40007F4C80EA030023F07F47ACEB070303F5F9
:100D50007C5300F0004003F1FF032DE980494FEA86
:100D6000154B09B44FEA144325EA0B4E24EA034815
:100D70000FF2042606EB132749083E785FEA320299
:100D800003FB0667C7F5000707FB06F64FEA543773
:100D90004FEAD64606F1020607FB066CCCF1005C72
:100DA0004FEA1C472CEA074C07FB06F40CFB06F540
:100DB00004EB15464FEA961634BF00204FF0004072
:100DC0004FEAD13706FB07FC4FEA1C4C0CFB0BF734
:100DD000D21B03FB0CF761EB07010CFB0EF7B0EB2A
:100DE000074072EB17420CFB08F734BFA2EB074237
:100DF000B2EB074261EB17414FEA0C444FEA91070F
:100E000006FB07FC4FEA1C4C0CFB0BF7B0EBC74092
:100E100072EB573203FB0CF734BFA2EBC742B2EBC5
:100E2000C74261EB57310CFB0EF7B0EBC70072EB1A
:100E300057720CFB08F734BFA2EBC702B2EBC70234
:100E400061EB5771039F4FEA816141EA921104EB14
:100E5000CC044FEAD1374FEA826206FB07FC42EA34
:100E600090124FEA80604FEA1C4C0CFB0BF7D21B30
:100E700003FB0CF761EB07010CFB0EF7B0EB07402F
:100E800072EB17420CFB08F734BFA2EB0742B2EB40
:100E9000074261EB17414FEA8C554FEA910704EB8B
:100EA0009C2406FB07FC4FEA1C4C0CFB0BF7B0EB39
:100EB000C74072EB573203FB0CF734BFA2EBC742BB
:100EC000B2EBC74261EB57310CFB0EF7B0EBC7003A
:100ED00072EB57720CFB08F734BFA2EBC702B2EB00
:100EE000C70261EB577115EB4C254FEA816141EA6E
:100EF00092114FEA82624FEAD13742EA901206FB22
:100F000007FC44F100044FEA80604FEA1C4C0CFBE4
:100F10000BF7D21B03FB0CF761EB07010CFB0EF781
:100F2000B0EB074072EB17420CFB08F734BFA2EBA3
:100F30000742B2EB074261EB174115EB1C154FEA74
:100F4000813141EA92414FEA823242EA90424FEACD
:100F500080304FEA0C7644F1000448EA03434EEA3D
:100F60000B484FF0000EB2EB080C71EB030724BFE7
:100F7000624639464EEB0E0E4FF0000B0018524100
:100F800049414BEB0B0BB2EB080C71EB03077BF108
:100F9000000B24BF624639464EEB0E0E4FF0000B9D
:100FA0000018524149414BEB0B0BB2EB080C71EBB3
:100FB00003077BF1000B24BF624639464EEB0E0E51
:100FC00051EA020718BF46F0010616EB0E7655F1FE
:100FD000000254F1000103D5BDE88901BDE8008895
:100FE000BDE88901BDE80048B619524141EB010155
:100FF000A3F10103704780807F7E7D7C7B7A7978C6
:10100000777676757473727171706F6E6E6D6C6CCD
:101010006B6A6A696868676666656464636362616F
:101020006160605F5F5E5E5D5D5C5C5B5B5A5A59F0
:10103000595858575756565555555454535352525C
:101040005251515050504F4F4F4E4E4D4D4D4C4CB4
:101050004C4B4B4B4A4A4A494949484848474747FD
:10106000474646464545454444444443434343423A
:10107000424242414141002B9C4630D477002BD064
:101080001CB54FEA370703B44FF010004FF01001C2
:10109000BAF1000F06D0BCF1000FDCBF40F0080031
:1010A00040F008014FF000000FBCBDE810400BF10C
:1010B000010BBBF1010F08BF5FEA170722BF12F156
:1010C000010211F101014FF0004143F1000300F072
:1010D000004043EA00007047F9D35708D0E746EADA
:1010E000064613F1400F4FEA16461FDD13F1200F9D
:1010F000DFBF16430A46002120335B42BED0C3F156
:10110000200746EA064602FA07F74FEA164646EA7D
:101110000706C3F1200722FA03F201FA07F721FAC2
:1011200003F14FF0000342EA0702A7E746EA02068E
:1011300046EA06464FEA164646EA0106BCBF46EABC
:101140000646360C4FF000034FF000024FF000014E
:1011500094E72DE9804C9A46934670B491E83800A4
:1011600007C831EA400C48BF34EA430C03D5FFF707
:10117000E6FDFFF780FFF0BCBDE8008C2DE9804C58
:101180009A46934670B491E8380007C810F0804F33
:1011900008BF13F0804F03D100F005F8FFF76BFF95
:1011A000F0BCBDE8008C20F07F4780EA030023F00C
:1011B0007F4C07EB0C03A3F57C5300F00040A3F138
:1011C000FE0392F0000F00F0B38095F0000F00F0E6
:1011D00077802DE901494FEA11404FEA144621EA90
:1011E000004800FB06FC24EA064708FB06F607FB5E
:1011F00008F800FB07F718EB06484CEB164C4FEAD3
:10120000124B18EB07484FEA15464CEB174022EA01
:101210000B4E0BFB06FC25EA06470EFB06F607FB0A
:101220000EFE0BFB07F71EEB064E4CEB164C4FF079
:1012300000061EEB074E4CEB174B18EB0B0840F16A
:10124000000018EB0E0B58EB000840F100008F1A5D
:101250004FF000013CBFC943661B14BFB5EB040C43
:1012600000213CBFC943F61B4FEA17444EEA8E0EDD
:1012700027EA04454FEA1C4704FB07622CEA074CA7
:1012800005FB07F70CFB05F604FB0CFC16EB074609
:1012900042EB174216EB0C4642EB1C421BEB0606D8
:1012A00058EB0202414146EA9E0601D5BDE801899C
:1012B000B619524141EB0101A3F10103BDE80189D7
:1012C0004FEA14454FEA114724EA054621EA074C44
:1012D00005FB07F406FB07F70CFB06F105FB0CFC0E
:1012E00011EB074144EB17444FEA124711EB0C4155
:1012F00044EB1C4422EA074C05FB07F206FB07F708
:101300000CFB06F605FB0CFC16EB074642EB1742FE
:1013100016EB0C4642EB1C456A1854F1000148BF1D
:101320007047B619524141EB0101A3F10103704727
:1013300095F0000F37D04FEA11424FEA144721EAE7
:10134000024624EA074C02FB07F106FB07F70CFBF9
:1013500006F402FB0CFC14EB074441EB17414FEA87
:10136000154714EB0C4441EB1C4125EA074C02FBEA
:1013700007F506FB07F70CFB06F602FB0CFC16EB69
:10138000074645EB174516EB0C4645EB1C42121978
:1013900051F1000148BF7047B619524141EB0101BC
:1013A000A3F1010370474FEA14454FEA114724EABD
:1013B000054621EA074C05FB07F106FB07F70CFB86
:1013C00006F24FF0000605FB0CFC12EB074241EB66
:1013D000174112EB0C4251EB1C4148BF7047921869
:1013E00041EB0101A3F10103704770B504460025EC
:1013F0002068806800F0010018B32068806820F041
:1014000001002168886000F0FBFE054613E000F053
:10141000F7FE401B02280ED92068806800F001000A
:1014200048B1A06A40F01000A062E06A40F00100FC
:10143000E062012070BD2068806800F00100002893
:10144000E5D10020F6E770B505466C6AA06A00F0A9
:101450005000E0B9A06A40F40070A0622068806883
:1014600000F46020B0F5602F0DD1207B58B9A06A40
:1014700020F48070A062A06A00F4805018B9A06ABD
:1014800040F00100A062204600F03EF903E0206A2F
:10149000016B2846884770BD70B505466C6AA06A26
:1014A00040F04000A062E06A40F00400E0622046A4
:1014B00000F02CF970BD70B50446656A284600F04E
:1014C00024F970BD38B5044600250020009020683E
:1014D000806800F0010078BB2068806840F001005F
:1014E00021688860194800681949B0FBF1F0009044
:1014F00002E00098401E009000980028F9D100F00A
:101500007FFE054619E000F07BFE401B022814D93F
:101510002068806800F0010078B9A06A40F01000EF
:10152000A062E06A40F00100E06200BF002084F8A1
:10153000240000BF012038BD05E02068806800F06D
:1015400001000028DFD00020F5E700006000002047
:1015500040420F0000BFFEE710B5024800F016FB46
:1015600010BD0000E800002030B590F84050012484
:10157000AC40C56B6C60046863604468102C04D197
:101580000468A2600468E16003E00468A160046884
:10159000E26030BD704710B54FF4807000F082FCFF
:1015A00010BD72B600BFFEE738B50246002300202A
:1015B000009000BF92F82400012801D1022038BD1C
:1015C000012082F8240000BF4868072812D2106862
:1015D000406B0C79641E04EB84051F24AC40A043CF
:1015E0000D796D1E05EB85050C68AC402043146831
:1015F000606327E048680D2812D21068006B0C79F0
:10160000E41F04EB84051F24AC40A0430D79ED1FBB
:1016100005EB85050C68AC4020431468206311E09D
:101620001068C06A0C790D3C04EB84051F24AC40A3
:10163000A0430D790D3D05EB85050C68AC402043BA
:101640001468E06208680A2812D31068C0680C7831
:101650000A3C04EB44050724AC40A0430D780A3D46
:1016600005EB45058C68AC4020431468E0600FE052
:10167000106800690C7804EB44050724AC40A043D3
:101680000D7805EB45058C68AC402043146820615B
:101690000868102802D00868112827D1174C106854
:1016A000A0421ED11068806800F40000F0B91068F4
:1016B000806840F400001468A0600868102815D104
:1016C0000F4800680F4CB0FBF4F000EB80004000C6
:1016D000009002E00098401E009000980028F9D188
:1016E00004E0906A40F020009062012300BF0020D7
:1016F00082F8240000BF184661E700000024014082
:101700006000002040420F007047704770470000A3
:101710002DE9F0410446002700250026A84614B90B
:101720000120BDE8F081A06810B1207D00B100BFAC
:10173000A06A30B90020E06284F82400204600F05E
:1017400089F82046FFF751FE0746A06A00F0100016
:10175000002873D1002F71D1A06A20F4885040F086
:101760000200A062E16960680843217B40EA410011
:101770000643A068B0F5807F02D0A068012802D19E
:101780004FF4807000E000200543207D012811D136
:10179000207B38B9A069401E4FF4006141EA403017
:1017A000054307E0A06A40F02000A062E06A40F034
:1017B0000100E0622068406820F469402843216805
:1017C000486020688068214908403043216888606B
:1017D000A068B0F5807F02D0A068012802D14FF444
:1017E000807000E00020B0F5807F03D1208A401E89
:1017F0004FEA00582068C06A20F4700040EA0800F0
:101800002168C8622068806811490840B04208D148
:101810000020E062A06A20F0020040F00100A06217
:1018200011E0A06A20F0020040F01000A062E06A1F
:1018300040F00100E062012705E0FFE7A06A40F008
:101840001000A062012738466BE70000FDF7E1FFBA
:10185000FE0E1FFF10B586B00446002002900390D4
:10186000049005902249206888423ED100BF21485B
:10187000806940F400701F4988610846806900F45F
:101880000070019000BF00BF00BF0846806940F0B3
:10189000040088610846806900F00400019000BFE0
:1018A00000BF012002900320039002A9124800F01B
:1018B00007FB1248124908600020486000211048C8
:1018C00081608021C160490001618900416120215E
:1018D00081610021C16100F027FA08B1FFF761FEC4
:1018E00000BF07482062446200BF06B010BD000080
:1018F000002401400010024000080140080002409E
:10190000E80000202DE9F04104460D461646002768
:1019100057492068884203D056492068884205D13B
:101920005348001D006800F4702000E000200028EB
:101930007ED100BF94F82400012802D10220BDE826
:10194000F081012084F8240000BF2046FFF7BAFD93
:101950000746002F6DD1A06A40F60161884340F42C
:101960008070A06243492068884209D14048001D28
:10197000006800F4702008B9012002E0002000E0B7
:10198000012078B1A06A20F48010A062206840682D
:1019900000F4806000B3A06A20F4005040F480504E
:1019A000A06219E0A06A40F48010A062304920686B
:1019B000884203D02F492068884205D12C48001D59
:1019C000006800F4806000E0002028B1A06A20F4E4
:1019D000005040F48050A062A06A00F4805020B112
:1019E000E06A20F00600E06201E00020E06200BF53
:1019F000002084F8240000BF1F48216A88621F4825
:101A0000216AC8621E48216A08636FF002002168DB
:101A100008602068806840F48070216888602268CF
:101A200002F14C0133462A46206A00F0B1F901E088
:101A30001AE014E02068806800F46020B0F5602FA0
:101A400006D12068806840F4A000216888600CE01E
:101A50002068806840F480102168886005E000BF3D
:101A6000002084F8240000E00127384667E70000E2
:101A7000002401400028014047140008B714000862
:101A8000991400080146002291F82100022808D08C
:101A90000420886300BF002081F8200000BF0120DF
:101AA00070470868006820F00E000B68186008682E
:101AB000006820F001000B68186091F840300120A8
:101AC0009840CB6B5860012081F8210000BF0020B6
:101AD00081F8200000BF1046E2E7000070B5044620
:101AE000002594F82100022803D00420A0630125DA
:101AF00048E02068006820F00E0021680860206837
:101B0000006820F00100216808601F4920688842B1
:101B100001D1012026E01C4914312068884201D1FE
:101B200010201FE0184928312068884201D1801513
:101B300018E015493C312068884201D1801411E039
:101B4000114950312068884202D14FF4803009E0B9
:101B50000D4964312068884202D14FF4801001E0C1
:101B60004FF08070084908394860012084F821004E
:101B700000BF002084F8200000BF606B10B1204639
:101B8000616B8847284670BD0800024070B5044666
:101B9000E06B05682068066894F8401004208840CF
:101BA0002840002846D006F00400002842D02068D3
:101BB000006800F0200028B92068006820F00400C8
:101BC0002168086057492068884201D1042027E035
:101BD000544914312068884201D1402020E0514905
:101BE00028312068884201D1001519E04D493C3167
:101BF0002068884202D14FF4804011E049495031B9
:101C00002068884202D14FF4802009E045496431C0
:101C10002068884202D14FF4800001E04FF08060DC
:101C2000404908394860E06A00287AD02046E16AD5
:101C3000884776E094F84010022088402840A0B3FE
:101C400006F0020088B32068006800F0200040B968
:101C50002068006820F00A0021680860012084F8EC
:101C6000210030492068884201D1022028E02D4916
:101C700014312068884201D1202021E029492831EF
:101C80002068884201D140151AE026493C3120687D
:101C9000884202D14FF4005012E0224950312068AE
:101CA000884203D14FF400300AE017E01D49643147
:101CB0002068884202D14FF4001001E04FF000701C
:101CC00018490839486000BF002084F8200000BF90
:101CD000A06A30B32046A16A884722E094F84010F9
:101CE000082088402840E0B106F00800C8B120680C
:101CF000006820F00E002168086094F84010012070
:101D00008840E16B48600120A06384F8210000BF97
:101D1000002084F8200000BF206B10B12046216B0A
:101D2000884770BD080002400146002209B9012021
:101D30007047164B0868C01A1423B0FBF3F08000FC
:101D4000086412480838C863022081F82100086836
:101D5000026843F6F0708243D1E901031843CB686F
:101D600018430B6918434B6918438B691843CB69B7
:101D7000184302430868026000208863012081F84C
:101D80002100002081F8200000BFD1E708000240B8
:101D90002DE9F04104460D4616461F464FF0000857
:101DA00000BF94F82000012802D10220BDE8F08194
:101DB000012084F8200000BF94F8210001282CD1D4
:101DC000022084F821000020A0632068006820F031
:101DD0000100216808603B46324629462046FFF74D
:101DE000C3FBE06A30B12068006840F00E00216853
:101DF00008600BE02068006820F00400216808609B
:101E00002068006840F00A002168086020680068C7
:101E100040F001002168086006E000BF002084F85F
:101E2000200000BF4FF002084046BFE770B50446EF
:101E300000F0E6F906462546681C10B10448007813
:101E4000054400BF00F0DCF9801BA842FAD370BD46
:101E50005C00002010B50446B4F5807F19D1012044
:101E60000C4908600C480088401C0B490880084653
:101E70000088022801DD00200880084800E0401E9C
:101E80000028FCDC4FF4807005490860172000F042
:101E900007FC10BD080000204400002020A107001E
:101EA0001404014010B5044604480068204020B1E5
:101EB000024804602046FFF7CDFF10BD1404014026
:101EC0002DE9F8470346002294466EE14FF00108E1
:101ED00008FA02F4D1F8008008EA0400A0427DD19B
:101EE000DFF8DCA2D1F80480A8EB0A09D0453AD08B
:101EF00014DCB8F1030F50D009DCB8F1000F31D079
:101F0000B8F1010F1CD0B8F1020F49D120E0B8F1AF
:101F1000110F18D0B8F1120F42D11EE0B9F5881F89
:101F200025D006DCB9F5803F20D0B9F5801F37D128
:101F30001AE0B9F5001F18D0B9F5041F30D117E029
:101F4000D1F80CC02DE0D1F80C8008F1040C28E089
:101F5000D1F80C8008F1080C23E0D1F80C8008F1CE
:101F60000C0C1EE000BF00BF00BF00BF00BF00BFE1
:101F7000D1F80880B8F1000F02D14FF0040C0BE04B
:101F8000D1F80880B8F1010F03D14FF0080C1C61A3
:101F900002E04FF0080C5C6103E04FF0000C00E041
:101FA00000BF00BFFF2801D8984601E003F10408F4
:101FB0004646FF2802D84FEA820803E0A2F108084B
:101FC0004FEA88084746D6F800804FF00F0909FA13
:101FD00007F928EA09080CFA07F900E088E048EA5E
:101FE0000908C6F80080D1F8048008F08058B8F1DC
:101FF000805F7DD100BFDFF8CC81D8F8188048F031
:102000000108DFF8C091C9F81880C846D8F81880D0
:1020100008F00108CDF8008000BF00BF4FEAB938D2
:102020004FEA920958F829504FEA82784FEA187916
:102030004FF00F0808FA09F825EA0805DFF888814B
:10204000434502D14FF0000816E0DFF88081434598
:1020500002D14FF001080FE0DFF87481434502D14F
:102060004FF0020808E0DFF86C81434502D14FF0E1
:10207000030801E04FF004084FEA82794FEA19792A
:1020800008FA09F848EA0505DFF84C814FEA920999
:1020900048F82950D1F8048008F48038B8F5803F1A
:1020A0000AD1DFF83881D8F8008048EA0008DFF864
:1020B0002C91C9F8008009E0DFF82081D8F8008071
:1020C00028EA0008DFF81491C9F80080D1F80480EC
:1020D00008F40038B8F5003F10D1DFF8008108F1AE
:1020E0000408D8F8008048EA0008DFF8F09000E023
:1020F0005AE009F10409C9F800800DE0DFF8DC803E
:1021000008F10408D8F8008028EA0008DFF8CC902D
:1021100009F10409C9F80080D1F8048008F4801896
:10212000B8F5801F0ED1DFF8B48008F10808D8F8A0
:10213000008048EA0008DFF8A49009F10809C9F80E
:1021400000800DE0DFF8948008F10808D8F80080DE
:1021500028EA0008DFF8849009F10809C9F800802E
:10216000D1F8048008F40018B8F5001F0ED1DFF88C
:102170006C8008F10C08D8F8008048EA0008DFF805
:102180005C9009F10C09C9F800800DE0DFF84C8083
:1021900008F10C08D8F8008028EA0008DFF83C9025
:1021A00009F10C09C9F80080521CD1F8008028FA06
:1021B00002F8B8F1000F7FF489AEBDE8F88700009F
:1021C000000011100010024000080140000C014006
:1021D00000100140001401400800014000040140CB
:1021E00010B5C26821EA020302EA010443EA04438B
:1021F000036110BD0AB1016101E00B040361704786
:1022000001480068704700005400002070B5044683
:102210000CB9012070BD94F83D0028B9002084F865
:102220003C00204600F092F9242084F83D0020680C
:10223000006820F00100216808602068006840F410
:102240000040216808602068006820F40040216890
:10225000086000F0FDFB05465C496068884206D8CE
:102260005B48854201D2012007E0002005E0594883
:10227000854201D2012000E00020012800D1C9E7F9
:102280005548B5FBF0F62068406820F03F00304329
:10229000216848604D496068884201D8701C07E099
:1022A0004FF4967070434FF47A71B0FBF1F0401C1C
:1022B0002168096A21F03F01084321680862434907
:1022C0006068884214D8681E61684900B0FBF1F06C
:1022D000401CC0F30B00042801D204203DE0681E1E
:1022E00061684900B0FBF1F0401CC0F30B0034E022
:1022F000A06838B9681E616801EB4101B0FBF1F0DC
:10230000401C0AE0681E616801EBC10202EB01118A
:10231000B0FBF1F0401C40F48040C0F30B0008B962
:1023200001201AE0A06848B9681E616801EB41010C
:10233000B0FBF1F0401CC0F30B000CE0681E6168BC
:1023400001EBC10202EB0111B0FBF1F0401CC0F344
:102350000B0040F4804040F400402168C9694CF60D
:10236000FF72914308432168C861D4E9070108431B
:102370002168096821F0C001084321680860D4E998
:10238000031008432168896848F2FF3291430843EB
:1023900021688860D4E9050108432168C96821F0F3
:1023A000FF0108432168C8602068006840F0010010
:1023B0002168086000202064202084F83D0000206F
:1023C000206384F83E0000BF24E70000A0860100DF
:1023D00080841E0000093D0040420F002DE9F843B3
:1023E0000446894616461F46DDF82080FFF708FFA1
:1023F000054694F83D0020287ED119230122514939
:102400002046009501F0E6FE10B10220BDE8F883F9
:1024100000BF94F83C00012801D10220F6E701201A
:1024200084F83C0000BF2068006800F0010028B973
:102430002068006840F0010021680860206800689A
:1024400020F4006021680860212084F83D001020FD
:1024500084F83E000020206466626785608D2085D8
:102460003948E0622B4642464946204601F024FEA8
:1024700008B10120CAE700BF002000902068406931
:10248000009020688069009000BF00BF44E02A46A9
:102490004146204601F043FF50B1206C042805D18D
:1024A0002068006840F40070216808600120ADE7F2
:1024B000606A007821680861606A401C6062608D13
:1024C000401E6085208D401E208520684069C0F335
:1024D000800070B1208D60B1606A00782168086169
:1024E000606A401C6062608D401E6085208D401EC9
:1024F00020852A46414600E022E0204601F03CFECD
:1025000050B1206C042805D12068006840F40070A8
:1025100021680860012079E7208D0028B7D1206864
:10252000006840F4007021680860202084F83D00B5
:10253000002084F83E0000BF84F83C0000BF65E73F
:10254000022063E7020010000000FFFF10B586B014
:1025500004460020029003900490059015492068DD
:10256000884225D100BF1448806940F00800124914
:1025700088610846806900F00800019000BF00BF34
:10258000C0200290122003900320059002A90B485E
:10259000FFF796FC00BF0848C06940F400100649E8
:1025A000C8610846C06900F40010019000BF00BF78
:1025B00006B010BD0054004000100240000C014065
:1025C00003480068034909780844014908607047D6
:1025D000540000205C00002010B50848006840F05E
:1025E000100006490860032000F0BAF80F2000F040
:1025F00007F800F02BF8002010BD0000002002407A
:1026000070B504460E4800784FF47A71B1FBF0F0D3
:102610000C490968B1FBF0F5284600F07DFF08B1D0
:10262000012070BD102C07D200222146501E00F060
:1026300059F80548046001E00120F2E70020F0E7C6
:102640005C000020600000205800002008B500BF9A
:102650001148806940F001000F498861084680698F
:1026600000F00100009000BF00BF00BF0846C06935
:1026700040F08050C8610846C06900F0805000906A
:1026800000BF00BF00BF0549486820F0E06040F08F
:102690000070486000BF08BD00100240000001400B
:1026A00010B501460846002807DB00F01F03012291
:1026B0009A40034B440943F8242000BF10BD00009A
:1026C00080E200E001460846002809DB00F01F0315
:1026D00001229A4043099B0003F1E023C3F8002143
:1026E00000BF70472DE9F05F80460D461646002773
:1026F00002F0ECFB074639462A46334601F0070054
:10270000C0F1070ABAF1040F02D94FF0040A01E040
:10271000C0F1070AD14600F1040ABAF1070F02D24C
:102720004FF0000A01E0A0F1030AD4464FF0010A7D
:102730000AFA09FAAAF1010A0AEA020A0AFA0CFAE2
:102740004FF0010B0BFA0CFBABF1010B0BEA030B87
:102750004AEA0B042146404602F0C0FBBDE8F09F68
:1027600000BF00F00702064B19684FF6FF0319403F
:10277000044B0B4343EA0221014B196000BF704731
:102780000CED00E00000FA05F8B50446002600252F
:10279000207800F0010000286BD000274348C06972
:1027A00000F0805070B900BF4048C06940F08050D0
:1027B0003E49C8610846C06900F08050009000BFE3
:1027C00000BF01273A48006800F48070B0B938486B
:1027D000006840F4807036490860FFF711FD064636
:1027E00006E0FFF70DFD801B642801D90320F8BD2A
:1027F0002F48006800F480700028F2D02B48006A4F
:1028000000F440752DB3A08800F44070A84220D099
:102810002648006A20F440750120264908600020FF
:1028200008602248056205F0010090B1FFF7E8FC5E
:10283000064608E0FFF7E4FC801B41F2883188423D
:1028400001D90320D3E71948006A00F002000028EC
:10285000F0D01648006A20F44070616808431349BC
:102860000862012F04D10846C06920F08050C86179
:1028700000BF207800F00200022807D10B48406812
:1028800020F44040A168084308494860207800F0DF
:102890001000102807D10548406820F48000E16846
:1028A0000843024948600020A1E7000000100240F0
:1028B000007000404004424270B504460D460CB919
:1028C000012070BD5A48006800F00700A8420ED2EF
:1028D0005748006820F0070028435549086008461B
:1028E000006800F00700A84201D00120E9E7207845
:1028F00000F0020002281DD1207800F00400042816
:1029000005D14C48406840F4E0604A49486020786E
:1029100000F00800082805D14648406840F460509F
:10292000444948604348406820F0F000A1680843EB
:1029300040494860207800F0010078B360680128C1
:1029400006D13C48006800F4003090B90120B8E797
:102950006068022806D13748006800F0007040B96E
:102960000120AEE73348006800F0020008B90120FA
:10297000A7E73048406820F00300616808432D490C
:102980004860FFF73DFC064609E0FFF739FC801B75
:1029900041F28831884202D9032092E707E02548B6
:1029A000406800F00C006168B0EB810FEDD1204869
:1029B000006800F00700A8420ED91D48006820F00A
:1029C000070028431A4908600846006800F007001D
:1029D000A84201D0012074E7207800F00400042808
:1029E00007D11448406820F4E060E16808431149C9
:1029F0004860207800F00800082808D10D48406899
:102A000020F46050216940EAC1000A49486000F0A2
:102A10003FF808494968C1F30311074A515CC840AF
:102A20000649086006480068FFF7EAFD002048E70D
:102A30000020024000100240505D000860000020AD
:102A40005800002001480068704700006000002026
:102A500000B5FFF7F7FF04494968C1F30221034AB3
:102A6000515CC84000BD000000100240605D0008DD
:102A700000B5FFF7E7FF04494968C1F3C221034AE3
:102A8000515CC84000BD000000100240605D0008BD
:102A9000F0B585B00FF26C0C9CE8E01001A8A0E83E
:102AA000E0101CA52D6800950021002200230024C1
:102AB0000020194D696801F00C05F5B1042D02D014
:102AC000082D19D101E0154819E001ADC1F3834685
:102AD000AC5D01F4803555B10F4D6D68C5F34045CF
:102AE0001DF805200D4D6543B5FBF2F302E00C4DDA
:102AF00004FB05F3184602E000BF084800BF00BF12
:102B000005B0F0BD02030405060708090A0B0C0D09
:102B10000E0F1010010200000010024000127A0097
:102B200000093D00F8B504460CB90120F8BD207835
:102B300000F00100002878D0F848406800F00C0050
:102B400004280CD0F548406800F00C00082811D18A
:102B5000F248406800F48030B0F5803F0AD1EF4879
:102B6000006800F4003000285FD0606800285CD165
:102B70000120DBE700BF6068B0F5803F06D1E74881
:102B8000006840F48030E549086028E0606858B982
:102B9000E248006820F48030E04908600846006898
:102BA00020F4802008601AE06068B0F5A02F0BD1F7
:102BB000DA48006840F48020D84908600846006878
:102BC00040F4803008600AE0D448006820F4803087
:102BD000D24908600846006820F48020086000BFE1
:102BE000606888B1FFF70CFB054606E0FFF708FBBD
:102BF000401B642801D9032098E7C848006800F406
:102C000000300028F2D010E0FFF7FAFA054606E09F
:102C1000FFF7F6FA401B642801D9032086E7BF4876
:102C2000006800F400300028F2D1207800F00200A3
:102C3000022857D1B948406800F00C0050B1B7489D
:102C4000406800F00C00082818D1B448406800F42F
:102C5000803098B9B148006800F0020020B12069C6
:102C6000012801D0012061E7AC48006820F0F8009D
:102C7000616940EAC100A949086033E02069E8B110
:102C80000120A7490860FFF7BBFA054606E0FFF7F9
:102C9000B7FA401B022801D9032047E79F48006884
:102CA00000F002000028F2D09C48006820F0F800F4
:102CB000616940EAC1009949086013E00020984921
:102CC0000860FFF79DFA054606E0FFF799FA401BFA
:102CD000022801D9032029E79048006800F002008B
:102CE0000028F2D1207800F0080008282DD1A06932
:102CF000B8B101208B490860FFF782FA054606E06B
:102D0000FFF77EFA401B022801D903200EE7834813
:102D1000406A00F002000028F2D0012001F0BAFD64
:102D200013E000207F490860FFF76AFA054606E0D5
:102D3000FFF766FA401B022801D90320F6E6774820
:102D4000406A00F002000028F2D1207800F0040070
:102D5000042873D100277148C06900F0805070B911
:102D600000BF6E48C06940F080506C49C861084699
:102D7000C06900F08050009000BF00BF01276A4882
:102D8000006800F48070B0B96748006840F4807053
:102D900065490860FFF734FA054606E0FFF730FAA8
:102DA000401B642801D90320C0E65F48006800F496
:102DB00080700028F2D000BFE068012806D1574893
:102DC000006A40F001005549086227E0E06858B900
:102DD0005248006A20F00100504908620846006A23
:102DE00020F00400086219E0E06805280BD14B4888
:102DF000006A40F00400494908620846006A40F051
:102E0000010008620AE04548006A20F001004349D9
:102E100008620846006A20F00400086200BFE0680B
:102E2000A0B1FFF7EDF9054609E0FFF7E9F9401B0E
:102E300041F28831884202D9032077E622E0374800
:102E4000006A00F002000028EFD012E0FFF7D8F986
:102E5000054608E0FFF7D4F9401B41F2883188426B
:102E600001D9032062E62D48006A00F00200002824
:102E7000F0D1012F05D12948C06920F080502749A1
:102E8000C86100BFE069C8B32448406800F00C0086
:102E9000082860D0E069022848D10020204908664F
:102EA000FFF7AEF9054606E0FFF7AAF9401B022836
:102EB00001D903203AE61948006800F000700028A4
:102EC000F2D1206AB0F5803F07D11448406820F461
:102ED0000030A168084311494860D4E9080108435B
:102EE0000E49496821F4741108430C4948600120D7
:102EF0000B490866FFF784F9054607E03DE0FFF758
:102F00007FF9401B022801D903200FE6034800681F
:102F100000F000700028F2D02FE000000010024006
:102F200000004242800442420070004000201449E8
:102F30000866FFF765F9054606E0FFF761F9401BF3
:102F4000022801D90320F1E50E48006800F0007066
:102F50000028F2D111E0E069012800D1E6E5094836
:102F6000466806F48031206A814204D106F470116B
:102F7000606A814201D00120D8E50020D6E500003A
:102F8000000042420010024010B504460CB9012076
:102F900010BD606A38B96068B0F5827F00D105E085
:102FA0000021E16102E00021216161610021A16253
:102FB00094F8510028B9002084F85000204600F011
:102FC00043F8022084F851002068006820F0400097
:102FD00021680860A08800F48270218901F404410E
:102FE0000843A18901F400610843217C01F002013A
:102FF0000843217D01F001010843218B01F4007198
:103000000843217F01F0380108432021095D01F0C8
:1030100080010843218D01F40051084321680860B4
:103020000421A06901EA1040216848602068C06955
:1030300020F400602168C86100206065012084F8E8
:1030400051000020A4E7000010B586B0044600201F
:1030500002900390049005903449206888422ED154
:1030600000BF3348806940F4805031498861084688
:10307000806900F48050019000BF00BF00BF084687
:10308000806940F0040088610846806900F004000F
:10309000019000BF00BFA0200290022003900320F7
:1030A000059002A92348FEF70BFF40200290002064
:1030B0000390049002A91F48FEF702FF33E01E4967
:1030C000206888422FD100BF1948C06940F4804071
:1030D0001749C8610846C06900F48040019000BFEC
:1030E00000BF00BF0846806940F0080088610846BC
:1030F000806900F00800019000BF00BF4FF430402D
:103100000290022003900320059002A90B48FEF7CD
:10311000D7FE4FF48040029000200390049002A953
:103120000648FEF7CDFE06B010BD0000003001409D
:10313000001002400008014000380040000C01402F
:103140002DE9F84F0446884616461D464FF0000A02
:1031500000BF94F85000012802D10220BDE8F88F8A
:10316000012084F8500000BFFFF74AF80746B14637
:1031700094F85100012802D04FF0020AADE0B8F1F6
:10318000000F00D016B94FF0010AA6E0032084F822
:10319000510000206065C4F83080A686E686A063F2
:1031A000A087E08760642064A068B0F5004F0BD171
:1031B0002068006820F040002168086020680068EE
:1031C00040F48040216808602068006800F04000FA
:1031D000402805D02068006840F040002168086061
:1031E000E068B0F5006F2FD1606810B1B9F1010F40
:1031F00009D1206B00882168C860206B801C206387
:10320000E08E401EE0861BE02068806800F002002F
:1032100002280AD1206B00882168C860206B801CBE
:103220002063E08E401EE0860AE0FEF7E9FFC01B47
:10323000A84201D3681C00B915B94FF0030A4CE04D
:10324000E08E0028E0D12EE0606810B1B9F1010FE6
:1032500009D1206B007821680873206B401C206323
:10326000E08E401EE0861BE02068806800F00200CF
:1032700002280AD1206B007821680873206B401C5B
:103280002063E08E401EE0860AE0FEF7B9FFC01B17
:10329000A84201D3681C00B915B94FF0030A1CE01D
:1032A000E08E0028E0D13A462946204601F034FB62
:1032B00008B120206065A06850B900BF00200090D0
:1032C0002068C068009020688068009000BF00BF40
:1032D000606D08B14FF0010A00BF012084F8510071
:1032E00000BF002084F8500000BF504636E72DE9AB
:1032F000FF5F0446884691461D460E9E01200290BF
:103300000020019000BF94F85000012803D1022052
:1033100004B0BDE8F09F012084F8500000BFFEF724
:103320006FFF074694F851B060680390AA46BBF15E
:10333000010F0BD00398B0F5827F04D1A06810B9BB
:10334000BBF1040F02D002200190DBE0B8F1000FC6
:1033500003D0B9F1000F00D015B901200190D1E0E0
:1033600094F85100042802D0052084F85100002070
:103370006065C4F83890E587A587C4F83080E58695
:10338000A586206460642068006800F04000402842
:1033900005D02068006840F0400021680860E068BF
:1033A000B0F5006F4AD1606810B1BAF1010F09D1D0
:1033B000206B00882168C860206B801C2063E08E31
:1033C000401EE08633E02068806800F0020002289A
:1033D00010D1E08E70B1029801280BD1206B0088CB
:1033E0002168C860206B801C2063E08E401EE08650
:1033F000002002902068806800F0010068B1E08F32
:1034000058B12068C068A16B0880A06B801CA063C5
:10341000E08F401EE08701200290FEF7F1FEC01B06
:10342000B04204D3701C10B1032001906AE0E08E1A
:103430000028C8D1E08F0028C5D14AE0606810B1EB
:10344000BAF1010F09D1206B007821680873206B55
:10345000401C2063E08E401EE08634E020688068D7
:1034600000F00200022810D1E08E70B1029801280D
:103470000BD1206B007821680873206B401C2063FF
:10348000E08E401EE086002002902068806800F0F8
:10349000010068B1E08F58B12068C068A16B087066
:1034A000A06B401CA063E08F401EE08701200290CB
:1034B000FEF7A6FEC01BB04201D3701C00B916B9BE
:1034C000032001901EE0E08E0028C7D1E08F002885
:1034D000C4D13A463146204601F01EFA20B10120FF
:1034E0000190202060650DE0A06850B900BF002069
:1034F00000902068C068009020688068009000BF3D
:1035000000BF00BF012084F8510000BF002084F8F4
:10351000500000BF0198FBE670B504462546681EC2
:10352000B0F1807F01D301200FE0681E4FF0E02151
:1035300048610F214FF0FF3001F0D0FC00204FF028
:10354000E021886107200861002070BD7047704746
:1035500030B502460B4600BF92F83C00012801D16D
:10356000022030BD012082F83C0000BF022082F81A
:103570003D00106844681068816824F07004186881
:10358000044310684460104D1068A8420BD01068C6
:10359000B0F1804F07D00D4D1068A84203D00C4DFC
:1035A0001068A84205D121F08001586801431068D5
:1035B0008160012082F83D0000BF002082F83C00BD
:1035C00000BF00BFCDE70000002C01400004004018
:1035D0000008004010B504460CB9012010BD94F855
:1035E0003D0028B9002084F83C00204600F026F871
:1035F000022084F83D00211D206801F05BFA0120C3
:1036000084F8460000BF84F83E0001213F200155A8
:10361000402001554120015500BF00BF012084F822
:10362000420043200155442001554520015500BF6B
:10363000012084F83D000020D0E7000038B50446A2
:103640002068B0F1804F15D100BF0B48C06940F031
:1036500001000949C8610846C06900F001000090F6
:1036600000BF00BF002202211C20FFF73BF81C20F6
:10367000FFF728F838BD000000100240014691F81D
:103680003D00012801D001207047022081F83D0053
:103690000868C06840F001000B68D860124B0868E9
:1036A00098420BD00868B0F1804F07D00F4B0868E4
:1036B000984203D00E4B086898420CD10868806885
:1036C00000F00702062A0CD00868006840F00100EC
:1036D0000B68186005E00868006840F001000B689E
:1036E00018600020D0E70000002C014000040040DA
:1036F000000800402DE9F04104460D4600BF94F853
:103700003C00012802D10220BDE8F081012084F8AC
:103710003C0000BF022084F83D002068866826F047
:10372000770626F47F46206886602868502833D0C4
:103730000CDC202850D004DC00284BD0102851D1BC
:1037400049E0302849D040284CD139E060282DD0BC
:10375000702807D0B0F5805F03D0B0F5005F41D18D
:103760000DE040E0D5E902136A68206801F0DCF959
:103770002068866846F077062068866033E0D5E9E1
:1037800002136A68206801F0CFF92068806840F46D
:1037900080402168886026E0EA686968206801F056
:1037A000D7F95021206801F0CAF91CE0EA6869687D
:1037B000206801F0E0F96021206801F0C0F912E012
:1037C000EA686968206801F0C3F94021206801F0C7
:1037D000B6F908E000BF00BF00BF2968206801F00B
:1037E000AEF900E000BF00BF012084F83D0000BF3B
:1037F000002084F83C0000BF00BF85E7704710B58B
:10380000044620680069C0F34000D8B12068C06851
:10381000C0F34000B0B16FF00200216808610120E0
:1038200020772068806900F0030018B12046FFF778
:10383000E5FF05E0204600F0ADF8204600F0ABF8CB
:103840000020207720680069C0F38000D8B120688C
:10385000C068C0F38000B0B16FF004002168086157
:10386000022020772068806900F4407018B120465B
:10387000FFF7C4FF05E0204600F08CF8204600F07A
:103880008AF80020207720680069C0F3C000D8B112
:103890002068C068C0F3C000B0B16FF008002168B4
:1038A0000861042020772068C06900F0030018B187
:1038B0002046FFF7A3FF05E0204600F06BF8204606
:1038C00000F069F80020207720680069C0F300103C
:1038D000D8B12068C068C0F30010B0B16FF010001C
:1038E00021680861082020772068C06900F44070D2
:1038F00018B12046FFF782FF05E0204600F04AF8A5
:10390000204600F048F8002020772068006900F089
:10391000010058B12068C06800F0010030B16FF0BC
:10392000010021680861204600F036F8206800692F
:10393000C0F3C01058B12068C068C0F3C01030B1E7
:103940006FF08000216808612046FFF7FFFD2068C6
:103950000069C0F3801058B12068C068C0F38010BF
:1039600030B16FF0400021680861204600F0F6F8A1
:1039700020680069C0F3401058B12068C068C0F3E7
:10398000401030B16FF02000216808612046FFF739
:10399000DEFD10BD7047704770B50446524920687F
:1039A000096888427ED15148006806281CD2DFE8A9
:1039B00000F0031C354E67824D494E48006802F006
:1039C000F9F8064602F0C6F805462A464AA14D48CF
:1039D000FCF70AFC09224B494B4800F01FFB434807
:1039E0000068401C414908607CE041494748006844
:1039F00002F0E0F8064602F0ADF805462A4644A17A
:103A00004048FCF7F1FB09223E493F4800F006FB25
:103A100036480068401C3549086063E034493F4837
:103A2000006802F0C7F8064602F094F805462A46F8
:103A30003BA13448FCF7D8FB09223249324800F058
:103A4000EDFA2A480068401C284908604AE02849E5
:103A50003648006802F0AEF8064602F07BF80546EC
:103A60002A4633A12748FCF7BFFB092225492648EF
:103A700000F0D4FA1D480068401C1C49086031E081
:103A80001B492E48006802F095F8064602F062F8DD
:103A900005462A462AA11B48FCF7A6FB092219491C
:103AA000194800E01FE000F0B9FA10480068401C17
:103AB0000E49086016E00E492448006802F07AF8C2
:103AC000064602F047F805462A4621A10D48FCF7B4
:103AD0008BFB09220B490C4800F0A0FA0020034997
:103AE000086000BF00BF70BD300200205000002001
:103AF0000000C8422C000020564241542530356455
:103B000000000000AC0000207802002030000020FF
:103B1000565441492530356400000000340000202F
:103B20004954414925303564000000003800002028
:103B30005054414925303564000000003C0000200D
:103B400056494E302530356400000000400000200A
:103B500049494E30253035640000000070477047F9
:103B6000704700002DE9F84F04462068056820687A
:103B7000C668206847694FF00009CA4605F00F097A
:103B8000B9F1000F0AD105F0200038B106F020008D
:103B900020B1204601F038F8BDE8F88FB9F1000FE8
:103BA00071D007F0010018B906F4907000286AD0AF
:103BB00005F0010030B106F4807018B1206C40F0BF
:103BC0000100206405F0040030B107F0010018B1D5
:103BD000206C40F00200206405F0020030B107F0D4
:103BE000010018B1206C40F00400206405F00800CA
:103BF00048B106F0200010B907F0010018B1206CA0
:103C000040F008002064206C68B305F0200028B163
:103C100006F0200010B1204600F0F6FF2068406951
:103C2000C0F3801A206C00F0080010B9BAF1000F40
:103C300022D0204600F0BDFF2068406900F040001F
:103C4000B0B12068406920F0400021684861A06B55
:103C500050B15648A16B4863A06BFDF73FFF10B110
:103C6000A06B416B88470CE02046FFF779FF08E026
:103C70002046FFF775FF04E02046FFF771FF0020A4
:103C8000206489E7FFE7206B012878D105F0100058
:103C9000002874D006F01000002870D000BF00206B
:103CA000009020680068009020684068009000BF85
:103CB00000BF2068406900F04000C0B3A06B0068FE
:103CC00040681FFA80F8B8F1000F2FD0A08D404552
:103CD0002CDDA4F82E80A06B806920281FD02068DE
:103CE000C06820F480702168C8602068406920F0B6
:103CF0000100216848612068406920F04000216887
:103D00004861202084F83E00002020632068C068BD
:103D100020F010002168C860A06BFDF7B3FEA08DF5
:103D2000E28D801A81B22046FFF719FF34E7FFE7E2
:103D3000A08DE18D401A1FFA80F8E08DE8B1B8F14E
:103D4000000F1AD02068C06820F490702168C86005
:103D50002068406920F0010021684861202084F833
:103D60003E00002020632068C06820F01000216819
:103D7000C86041462046FFF7F2FE0DE7FFE705F079
:103D8000800030B106F0800018B1204601F04FF8F5
:103D900002E705F0400030B106F0400018B12046BF
:103DA00000F022FFF8E600BFF6E600009F4B000897
:103DB00010B504460CB9012010BDA06900B100E0A7
:103DC00000BF94F83D0028B9002084F83C0020464C
:103DD00000F028F8242084F83D002068C06820F412
:103DE00000502168C860204600F080FF206800690C
:103DF00020F49040216808612068406920F02A0082
:103E0000216848612068C06840F400502168C8609B
:103E100000202064202084F83D0084F83E0000202B
:103E2000CAE7000010B586B0044600200290039057
:103E3000049005901E492068884236D100BF1D4875
:103E4000806940F480401B4988610846806900F41D
:103E50008040019000BF00BF00BF0846806940F06D
:103E6000040088610846806900F00400019000BFEA
:103E700000BF48150290022003900320059002A97C
:103E80000D48FEF71DF84FF480600290002003906B
:103E9000049002A90848FEF713F80022012125200A
:103EA000FEF720FC2520FEF70DFC06B010BD00003B
:103EB00000380140001002400008014070B504467F
:103EC0000D46164694F83E00202816D105B10EB9CD
:103ED000012070BD00BF94F83C00012801D10220F0
:103EE000F7E7012084F83C0000BF00202063324641
:103EF0002946204600F078FFEBE70220E9E70000C2
:103F000070B506464049306888427CD1002473E091
:103F10003E48005D612818D1002514E03B48405D13
:103F2000312806D100224FF400613948FEF762F9CA
:103F300008E03648405D302804D10122D1023448DF
:103F4000FEF758F96D1C042DE8DB3048005D62284F
:103F500018D1002514E02D48405D312806D10022FB
:103F60004FF480512A48FEF745F908E02748405DA4
:103F7000302804D1012211032548FEF73BF96D1CBE
:103F8000042DE8DB2148005D632818D1002514E0EA
:103F90001E48405D312806D100224FF400411C48E4
:103FA000FEF728F908E01948405D302804D10122C5
:103FB000D1031748FEF71EF96D1C042DE8DB1348EA
:103FC000005D642817D1002513E01048405D3128BA
:103FD00005D1002208210F48FEF70CF908E00B4834
:103FE000405D302804D1012208210A48FEF702F979
:103FF0006D1C042DE9DB641C042C89DB04220349BD
:104000000548FFF75BFF70BD003801404C00002001
:1040100000080140000C01407802002010B5034662
:1040200093F83D00202823D101B10AB9012010BD29
:1040300000BF93F83C00012801D10220F7E70120DE
:1040400083F83C0000BF19629A84DA840020186467
:10405000212083F83D0000BF002083F83C0000BF12
:104060001868C06840F080001C68E0600020DEE74F
:104070000220DCE7704700BFFEE7014608684069A0
:10408000C0F38020B0B16FF480600A6850610020F6
:104090000863202081F83D00002081F83E00086C74
:1040A00040F00400086400BF002081F83C0000BF1D
:1040B000012070470020FCE72DE9F84304460D4637
:1040C00017469846E66A082E04D0012E02D016F54F
:1040D000803F06D12068006840F480702168086045
:1040E00008E0206B122805D12068006840F4807039
:1040F000216808603B4600224FF001112046CDF8B0
:10410000008000F067F860B12068006800F48070FB
:10411000B0F5807F02D14FF4007020640320BDE829
:10412000F8832069B0F5804F04D105F0FE002168C6
:10413000086112E005F44070F02141EAE0102168C6
:10414000086143463A460B49204600F086F808B11C
:104150000120E4E7E8B22168086143463A46054990
:10416000891F204600F079F808B10120D7E7002028
:10417000D5E700000800010070B504460D4616465C
:1041800020E02046FFF779FF08B1012070BD681CD0
:10419000C0B1FEF735F8801BA84200D895B90020C1
:1041A0002063202084F83D00002084F83E00206C2D
:1041B00040F02000206400BF002084F83C0000BFD5
:1041C0000120E3E720684069C0F380000028D8D0D0
:1041D0000020DBE72DE9F04104460D4617461E4658
:1041E000DDF818801CE0701CD0B1FEF709F8A0EBD8
:1041F0000800B04200D89EB900202063202084F837
:104200003D00002084F83E00206C40F02000206437
:1042100000BF002084F83C0000BF0120BDE8F08111
:10422000C5F3074001280AD120684069A9B20840B7
:10423000A9B2884201D101200BE0002009E02068EA
:104240008069A9B20840A9B2884201D1012000E0EA
:104250000020B842C7D00020E0E72DE9F041044635
:104260000D4616461F463DE020684069C0F3802099
:10427000E8B12068006840F40070216808606FF4BD
:1042800080602168486100202063202084F83D0080
:10429000002084F83E00206C40F00400206400BF41
:1042A000002084F83C0000BF0120BDE8F081701CB4
:1042B000C0B1FDF7A5FFC01BB04200D896B90020E1
:1042C0002063202084F83D00002084F83E00206C0C
:1042D00040F02000206400BF002084F83C0000BFB4
:1042E0000120E2E7C5F3074001280AD120684069B0
:1042F000A9B20840A9B2884201D101200BE00020F8
:1043000009E020688069A9B20840A9B2884201D1B9
:10431000012000E000200028A6D00020C5E770B5ED
:1043200004460D46164620E02046FFF7A6FE08B1DB
:10433000012070BD681CC0B1FDF762FF801BA84260
:1043400000D895B900202063202084F83D0000208B
:1043500084F83E00206C40F02000206400BF002064
:1043600084F83C0000BF0120E3E720684069C0F307
:10437000C0100028D8D00020DBE7000070B55348FB
:10438000008820B101282ED002282BD187E0504888
:10439000006801F0F1FA044622460B464DA14F4851
:1043A000FBF722FF0121002000F011FE4CA000F0DD
:1043B00065FE0121084600F00AFE4DA000F05EFEF9
:1043C000464800F05BFE4BA000F058FE4A480068EB
:1043D000012807D100F00EFE0120FDF727FD002087
:1043E000454908606FE04548006801F0C5FA044699
:1043F00022460B4642A14448FBF7F6FE43480068BC
:1044000001F0BAFA044622460B4632A14048FBF7B7
:10441000EBFE4048006801F0AFFA044622460B4626
:1044200037A13D48FBF7E0FE0021084600F0CFFD34
:104430003AA000F023FE0821002000F0C8FD2CA0C7
:1044400000F01CFE304800F019FE2AA000F016FE15
:104450000021012000F0BBFD32A000F00FFE2C482F
:1044600000F00CFE30A000F009FE0821012000F051
:10447000AEFD2EA000F002FE274800F0FFFD2CA0AC
:1044800000F0FCFD1C480068012807D100F0B2FDD7
:104490000120FDF7CBFC00201749086013E0012143
:1044A000002000F094FD23A000F0E8FD1248006811
:1044B000012807D100F09EFD0120FDF7B7FC002088
:1044C0000D49086000BF00BF70BD0000440000201F
:1044D0002C00002025322E326600000064000020EF
:1044E0004449454E20415020414351555900000058
:1044F000553D00005600000008000020300000205C
:1045000025332E31660000007000002034000020AA
:104510007C00002038000020880000204F555450B7
:1045200055540000493D000041000000503D00008E
:10453000570000004441552052412047494F000098
:104540000EB50020009001900290134813490860B6
:1045500000211248816001210173002101754FF48F
:104560006021C16100200D49486001210B480161B3
:10457000FDF7CEF808B1FDF714F8002000900120F7
:1045800001900720029069460448FDF70DF808B134
:10459000FDF707F80EBD000000240140B800002020
:1045A00008B500BF0A48406940F001000849486169
:1045B0000846406900F00100009000BF00BF0022E3
:1045C00011460B20FEF78EF80B20FEF77BF808BD96
:1045D0000010024000B585B00020019002900390C9
:1045E000049000BF4448806940F01000424988614F
:1045F0000846806900F01000009000BF00BF00BFB7
:104600000846806940F0200088610846806900F013
:104610002000009000BF00BF00BF0846806940F046
:10462000040088610846806900F00400009000BF23
:1046300000BF00BF0846806940F008008861084656
:10464000806900F00800009000BF00BF00224FF416
:1046500000512A48FDF7CEFD00221E212848FDF713
:10466000C9FD002203212748FDF7C4FD01224FF4B4
:1046700018412348FDF7BEFD012208212148FDF71E
:10468000B9FD4FF4005001900120029000200390EA
:104690000220049001A91948FDF712FC49F61E00FA
:1046A000019001200290002003900220049001A9B3
:1046B0001348FDF705FC0B2001900120029000201B
:1046C00003900220049001A90E48FDF7F9FB4FF476
:1046D000807001900C4802900120039001A90948C4
:1046E000FDF7EEFB002203211720FDF7FBFF17204B
:1046F000FDF7E8FF05B000BD0010024000100140CA
:1047000000080140000C01400000211010B50B48CA
:104710000B4908600B484860002109488160C1606E
:104720004FF480410161002141618161C1610162F9
:10473000FDF76CFD08B1FCF734FF10BD00540040DC
:104740002C010020A086010010B50F480F49086019
:104750004FF48270486000210C488160C1600221E2
:104760000161002141614FF4007181613821C16113
:1047700000210162416281620A21C162FEF704FCEC
:1047800008B1FCF70EFF10BD003001408001002091
:1047900010B50E480E4908604FF482704860002141
:1047A0000B488160C160016141614FF480218161EA
:1047B0000021C1610162416281620A21C162FEF78A
:1047C000E3FB08B1FCF7EDFE10BD0000003800402F
:1047D000D801002000B587B0002003900490059018
:1047E0000690019002904FF080401449086044F612
:1047F0002060486000211148816040F23F61C16043
:10480000002101618161FEF7E5FE08B1FCF7C9FEF8
:104810004FF48050039003A90848FEF76BFF08B1DE
:10482000FCF7BFFE00200190029001A90348FEF7AB
:104830008FFE08B1FCF7B5FE07B000BD30020020C6
:1048400010B50F480F4908604FF41650486000211A
:104850000C488160C16001610C21416100218161CE
:10486000C161FFF7A5FA08B1FCF79BFE0122002108
:104870002520FDF737FF2520FDF724FF10BD0000A0
:10488000003801407802002000BFFEE700BFFEE7CD
:104890007047000008B508490968C9084FF47A72E2
:1048A000B1FBF2F14143009100BF00BF00994A1EE5
:1048B00000920029F9D108BD6000002001B584B044
:1048C000002003900290002210211148FDF792FC75
:1048D0000A23012204A90F48FEF732FC0A20032311
:1048E00002AA03A900900B48FEF701FD0122102146
:1048F0000748FDF77FFC9DF8080000049DF80910AB
:1049000040EA01209DF80A10084305B000BD0000F0
:104910000008014080010020F8B504460D46164607
:104920002B46002280212046009600F009F828B18D
:10493000606D40F0200060650320F8BD0020FCE7BA
:104940002DE9F84F04460D4690461E46DDF82890A6
:10495000FDF756FCA0EB0900371AFDF751FC824623
:104960002C480068C0F3CB307843009045E0701CC1
:10497000002842D0FDF744FCA0EB0A00B84200D268
:10498000A7BB2068406820F0E000216848606068AC
:10499000B0F5827F0DD1A068B0F5004F03D0A068BC
:1049A000B0F5806F05D12068006820F040002168D4
:1049B0000860A06AB0F5005F0DD100BF20680068F4
:1049C00020F40050216808602068006840F400501E
:1049D0002168086000BF012084F8510000BF00205A
:1049E00084F8500000BF0320BDE8F88FFFE700986F
:1049F00000B900270098401E009020688068284079
:104A0000A84201D1012000E000204045AFD10020A4
:104A1000EAE7000060000020704710B5FDF7D0FD08
:104A200010BD00B593B0282109A8FBF7F1FC1421B3
:104A300004A8FBF7EDFC0020009001900290039089
:104A40000120099000040A9000200B9001200D9095
:104A500002201090C10311910021129109A8FEF7C4
:104A600061F808B1FCF79DFD0F200490022005902D
:104A700080200690C000079000200890002104A824
:104A8000FDF71AFF08B1FCF78CFD022000908003AF
:104A900002906846FDF778FE08B1FCF782FD13B07E
:104AA00000BD704710B50248FEF7A9FE10BD00001A
:104AB0003002002010B50268184B984208D0B0F1BF
:104AC000804F05D0164B984202D0164B984203D126
:104AD00022F070024B681A43104B984208D0B0F194
:104AE000804F05D00E4B984202D00E4B984203D116
:104AF00022F44072CB681A4322F080034C6943EAE7
:104B0000040202608B68C3620B688362034B9842A5
:104B100001D10B6903630123436110BD002C0140E7
:104B2000000400400008004030B50C46816821F4C4
:104B30007F4142EA032525432943816030BD0A466F
:104B4000816821F0700142F00703194381607047CA
:104B500030B50B461446026A056A25F00105056268
:104B6000816921F0F00141EA041122F00A021A439E
:104B70008161026230BD30B50B461446056A25F0EE
:104B8000100505628169026A21F4704141EA04312D
:104B900022F0A00242EA03128161026230BD70B5C8
:104BA00005466C6A0020E085E0842046FEF7D8FFC9
:104BB00070BD0168C96821F490710268D160016814
:104BC000496921F0010102685161016B012905D198
:104BD0000168C96821F010010268D160202180F8C5
:104BE0003E1000210163704710B504462068C0687C
:104BF00020F040002168C860202084F83D00204655
:104C0000FFF738FA002010BDF8B5044694F83E00CE
:104C1000222869D1A068B0F5805F0CD1206950B915
:104C20000025A66A20684068C0F308003080A06AAA
:104C3000801CA06215E0A56A0026A068B0F5805F20
:104C400003D0A06828B9206918B920684068287086
:104C500004E02068406800F07F002870A06A401CD3
:104C6000A062E08D401E80B2E085A8BB2068C068CD
:104C700020F020002168C8602068C06820F480709F
:104C80002168C8602068406920F0010021684861FF
:104C9000202084F83E00206B01281ED100202063D4
:104CA0002068C06820F010002168C8602068006893
:104CB00000F0100010280AD100BF002000902068EA
:104CC0000068009020684068009000BF00BFA18D80
:104CD0002046FEF744FF03E004E02046FFF710F90A
:104CE0000020F8BD0020FCE70220FAE770B504467A
:104CF0002168096921F44051E26811432268116179
:104D00002269A1681143626941EA02052168C96804
:104D100041F20C62914329432268D16021684969BC
:104D200021F44071A2691143226851612D4A216822
:104D3000914202D1FDF79CFE01E0FDF789FE00EBF8
:104D4000C00101EB001162689200B1FBF2F100EBCF
:104D5000C00202EB001263689B00B2FBF3F2642313
:104D6000B2FBF3F202EBC20303EB0212A1EB8201EE
:104D7000322202EB01116422B1FBF2F101F0F001E9
:104D800000EBC00202EB001263689B00B2FBF3F27F
:104D90006423B2FBF3F201EB021200EBC00101EB62
:104DA000001163689B00B1FBF3F100EBC00303EB60
:104DB00000136668B600B3FBF6F36426B3FBF6F3A4
:104DC00003EBC30606EB0313A1EB8301322303EBD2
:104DD00001116423B1FBF3F101F00F0111442268CA
:104DE000916070BD0038014010B5034699629A8504
:104DF000DA8500201864222083F83E0000BF0020DE
:104E000083F83C0000BF1868C06840F480701C68DC
:104E1000E0601868406940F001001C686061186833
:104E2000C06840F020001C68E060002010BD014612
:104E300091F83D00212828D18868B0F5805F0BD11A
:104E4000086948B90A6A1088C0F308000B685860FE
:104E5000086A801C086205E00B6A581C0862187812
:104E60000B685860C88C401E80B2C88458B9086866
:104E7000C06820F080000B68D8600868C06840F007
:104E800040000B68D860002070470220FCE700005B
:104E900010B50248FEF766FE10BD00007802002043
:104EA00000BFFEE7490050EAC12018BF04204A0DA8
:104EB00018BF40F0010040F2FF72B2EB515F08BF33
:104EC00040F00200012808BF052070470248006832
:104ED000C0F30220704700000CED00E010B5002880
:104EE00004DB0A07130E054A135406E00A07140EE2
:104EF000034A00F00F031B1FD45410BD00E400E070
:104F000018ED00E030380A2801D201207047002057
:104F10007047000010B5002400200C4908600AE02A
:104F20000B48006804440120FCF780FF0748006834
:104F3000401C06490860054800686428F0D36420D6
:104F4000B4FBF0F00349086010BD0000040000202D
:104F5000000000202000002010B56420FCF766FF50
:104F6000302000F047F80A20FCF760FF302000F006
:104F700041F80220FCF75AFF302000F03BF80A20ED
:104F8000FCF754FF202000F035F80A20FCF74EFF14
:104F9000282000F02FF80A20FCF748FF082000F036
:104FA00029F80A20FCF742FF012000F023F8012035
:104FB000FCF73CFF062000F01DF80A20FCF736FF46
:104FC0000C2000F017F80A20FCF730FF10BD70B578
:104FD00005460C4615B1012D06D102E044F08004CF
:104FE00002E044F0C00400BF00BFE0B200F002F8ED
:104FF00070BD00007CB5044604F0F005F02000EA26
:10500000041645F00C008DF8040045F008008DF8FA
:10501000050046F00C008DF8060046F008008DF8FB
:1050200007006420042301AA4E2100900148FDF7E7
:10503000D5F97CBD2C0100207CB5044604F0F005B8
:10504000F02000EA041645F00D008DF8040045F04C
:1050500009008DF8050046F00D008DF8060046F0B9
:1050600009008DF807006420042301AA4E21009056
:105070000148FDF7B3F97CBD2C01002010B50446B2
:1050800003E014F8010BFFF7D7FF20780028F8D1D0
:1050900010BD00001FB5FDF79FFAFFF7C2FCFFF738
:1050A00099FAFFF77DFAFFF74BFAFFF72FFBFFF7AF
:1050B0004BFBFFF7C5FBFFF76BFBFFF78BFBFFF726
:1050C0004BFF01227C497D48FCF71CFC04227C49F3
:1050D0007C48FEF7F3FE7C48FEF7D0FAEAE04FF496
:1050E00000517A48FDF77CF80024A146002508E02D
:1050F0001720FFF7E3FB7649086008460068044480
:105100006D1C142DF4DB1420B4FBF0F07149086021
:10511000002508E01620FFF7D1FB6F49086008461C
:10512000006881446D1C142DF4DB1420B9FBF0F0F1
:105130006A49086067480068A0F54340503872210A
:1051400048436749B0FBF1F5284600F01FFD65496B
:10515000086062490968A1F5B96000F089FA07465C
:10516000614A624B00F0D4FA054600F0EBF8604962
:105170000860FFF7CFFE5048006800F007FD834647
:105180005C4900F025FC824600F0F6FB05465A4AD1
:105190005A4B00F0BDFA0022594BCDE9000100F056
:1051A000B7FA0022574BCDE9020100F009F9074692
:1051B00000F0C8F8544908600846006800F0DCFBBD
:1051C00005464FF03332514B00F0A0FB17D264205C
:1051D000FCF72CFE4C48006800F0CEFB05464FF073
:1051E00033324A4B00F092FB09D201220221484897
:1051F000FDF700F8012211464548FCF7FBFF424845
:10520000006800F0B9FB05464FF033323F4B00F029
:1052100043FA2BD83C48006800F0AEFB054600225C
:105220003C4B00F073FB21D86420FCF7FFFD3648AF
:10523000006800F0A1FB05464FF03332334B00F01D
:105240002BFA13D83048006800F096FB0546002280
:10525000304B00F05BFB09D8012202212C48FCF7FF
:10526000C9FF012211462A48FCF7C4FF26480068FE
:1052700000F082FB05460022264B00F00DFA16D204
:105280006420FCF7D3FD2048006800F075FB05465C
:105290000022204B00F000FA09D2012202211C4812
:1052A000FCF7A8FF012211461948FCF7A3FFFFF7FE
:1052B00065F800BF13E7000000000020B8000020E0
:1052C0004C00002078020020300200200010014035
:1052D0000C000020240000201000002028000020E6
:1052E0001008040030000020E78790418EB0FF3E98
:1052F0003400002000607E458FC2F5285C8F0A4094
:105300000009C54000508E402C00002033332C4053
:10531000000C01400000184010B500290AD00878A0
:10532000002807D005487844FBF750FC002801D03E
:10533000002010BD0248784410BD00000A0B000098
:10534000020B000021F00042A2F16052B2F5801F72
:1053500001F0004328BFD2F17F6C0BD95FEA001C3B
:1053600043EAC20242EB507018BF704728BF20F0DA
:1053700001007047B2F5801FBCBF184670474FEA66
:10538000410C1CF5001F02D2084600F0DABC70B5D3
:1053900000F068FA00000089FFF7F6BF4FF0004008
:1053A000A0F580007047491058BFC1F140415B1023
:1053B00058BFC3F140438B42EFF3008070470000B9
:1053C0002DE9C04130B4DFF8A0C23CEA111418BF87
:1053D0003CEA131400F0EC8081EA03051CEA111486
:1053E00044EAD57418BF1CEA131500F0C780A4EB7B
:1053F00005044FF0004545EAC12145EAC32341EACF
:10540000505143EA525304F17F74994204F5003439
:105410004FEAC0204FEAC22208BF904200F09C80B1
:105420004FEA13650FF24016765D4FEA134506FB0F
:1054300005F7C7F1807706FB07F74FEAD737A7FBD9
:1054400003687642C8F58038A7FB06CE38BFA8F1BE
:10545000010807FB08E64FF0000EA6FB028CE6FBF6
:1054600003CEDCF1000CCEF1004E38BFAEF1010EE0
:10547000A6FB0C584FF000074FF00005E6FB0E8727
:10548000A1FB08C6A0FB07CE16EB0E0645F10005F2
:10549000E1FB076515F1E04E7EBFA4F580345FEABD
:1054A00046066D4116F1800745F100054FEA1727C2
:1054B0004FEA066647EA0567A6F1DE46B6F1805F69
:1054C0004FEA15251FD9384624F0010C05EBC471AD
:1054D000BCF1FE6F01EB0C1102D8F0BCBDE80081FD
:1054E00024425CBF01F5801E9EEAC47F02D4F0BC5A
:1054F000BDE80081244238D4F0BCA1F1C041BDE830
:10550000004100F0FDB94FEAD22242EA43524FEA8D
:10551000D323A7FB02864FEAD02040EA415007FB85
:1055200003661EEA0E0F4FEAD12105FB026658BF43
:10553000A6EB0056B6EB00564FEA520E4EEAC37E7B
:1055400018EB0E0E56EB530EBDD518EB02085E415C
:105550007F1C55F10005B6E74FF480154FF00007AA
:105560004FF000064FF00008ADE7F0BC4FF0000030
:1055700001F1C04101F00041BDE8008111EA0C1FBA
:105580000CEA131500D00CE013EA0C1F00F0258084
:105590004FF00000F0BC81EA030101F00041BDE8DA
:1055A0000081F0BCBDE8004181EA030100F0A8B928
:1055B000F0BCBDE8004170B500F054F9097EFC3E36
:1055C00000F007B881EA03014FF0000001F000414C
:1055D000704781EA030100F093B9F0BCBDE80041D7
:1055E0004FF0000021497047FFFDFBF9F7F5F4F299
:1055F000F0EEEDEBE9E8E6E4E3E1E0DEDDDBDAD86E
:10560000D7D5D4D3D1D0CFCDCCCBCAC8C7C6C5C4CB
:10561000C2C1C0BFBEBDBCBBBAB9B8B7B6B5B4B3E2
:10562000B2B1B0AFAEADACABAAA9A8A8A7A6A5A4CD
:10563000A3A3A2A1A09F9F9E9D9C9C9B9A99999891
:105640009797969595949393929191908F8F8E8E34
:105650008D8C8C8B8B8A89898888878786858584C1
:1056600084838382828181800000FF070000F87FAD
:10567000B0FA80F310FA03F10AD0C3F11D0303F569
:1056800080634FEA41504FEA035202EBD121704749
:105690004FF000007047000051EA030C17D41CF5CE
:1056A000801F58BFBCF5801F00F10680994218BFCB
:1056B000704708BF9042704707D711F5801F58BF49
:1056C00013F5801F19D499427047894270471CF521
:1056D000801F08D5BCF5801FF7D58B4218BF7047D7
:1056E00008BF824270474FF4001C1CEB410F38BFCB
:1056F0001CEB430F01D28B42704770B500F0B2F83B
:10570000922449004FF000514FF08053FFF74BBEF9
:10571000DFF848C170B51CEA111E1EBF1CEA131544
:105720009EEA0C0F95EA0C0F00F06F8081EA0304EB
:1057300023EA4C134EEAD47E21EA4C1141F4801145
:1057400043F48013AE44A1FB024CA0FB0365AEF111
:105750007F7E361955EB0C05A1FB034C4CF1000381
:10576000A0FB021C16EB0C06654153F10003094235
:1057700018BF46F0010613F4007F0BD14FEA033146
:105780004FEA0530340341EA155140EA16506FF0F4
:1057900003020AE04FEAC3214FEAC520F40241EABE
:1057A000555140EA56506FF0020202EB2E4201EBD7
:1057B000025585EACE710AD05FEA440C18BF24F086
:1057C000004450F1000041F1000120EAD47040F2A1
:1057D000FE7C624500D270BDA84214BF4FF08044E9
:1057E0004FF04044002E08BF0024BEF1806FA8BFD8
:1057F000A1F1C041BDE8704080F282804FF000000E
:1058000001F1C04101F0004170479EEA0C0F0CEA23
:10581000131518BF95EA0C0F06D04FF0000081EA6F
:10582000030E0EF0004170BD00F01CF88900013E2F
:1058300000F007B800F009B84FEA430C5FEA5C5C7F
:1058400008D081EA030100F05BB84FEA410C5FEA3F
:105850005C5CF6D14FF00000014970470000FF0783
:105860000000F87F0EF1020E2EF0030E5EF8046BBE
:10587000364205D4012A43EB030515F5001F12D863
:10588000012841EB010C1CF5001F0CD80ED14FEA8A
:10589000D17C15F5001F0CEB4C0C0CF1020C08BF71
:1058A0004CEBD37C04E04FF0080C01E04FEAD37CD2
:1058B0000CEB4C0526FA05F606F00706B6F1040CCB
:1058C00006D20EEB860CBDE870404CF0010C604730
:1058D000DFE80CF0090B02024FF000414FF000002E
:1058E000A1F5002170BD19461046012851EB0104B5
:1058F00018BFD4F5001484BF002001F0004170BD32
:105900000808A0F500114FEA3101704753EA010C75
:1059100017D41CF5801F58BFBCF5801F00F106800E
:105920008B4218BF704708BF8242704707D713F5F4
:10593000801F58BF11F5801F19D48B4270479B42BE
:1059400070471CF5801F08D5BCF5801FF7D599421C
:1059500018BF704708BF904270474FF4001C1CEB03
:10596000430F38BF1CEB410F01D2994270470FB46F
:105970000CBC03BCFFF7C1BE43004FEAD30C4FEA97
:105980003C0C43401FBF40070CF1605113F0FE4F29
:1059900070471CF0006F03D100200CF000417047ED
:1059A0000CF0004343EA507010B540EACC0000F020
:1059B00082F900BF000000924FEA0001FFF7A0BF8C
:1059C0004FF000414FF00000A1F5002170470000AA
:1059D0004FF47F0C1CEAD0121EBF1CEAD11392EACE
:1059E0000C0F93EA0C0F00F0858090EA010F48BF7E
:1059F00042F4807240F4000C41F400002CF07F412E
:105A000020F07F4000B58142A2EB03020FF2081C98
:105A1000ACEB504EC0F100009EF800E04FEA4E0E95
:105A200000FB0EFC38BF49004FEA2C1C02F5FA02BD
:105A30000CFB0EF34FEACE1E4FEA112C4FEAC121A8
:105A40000EEB635E42EB22420EFB0CFC4FEA1C5352
:105A500000FB03114FEA112C4FEA01310EFB0CFC45
:105A60004FEADC4C00FB0C11C14228BF09184CEB7B
:105A700003335DF804EB10EB410143EBC250B2F588
:105A80007C0F38BF704729D512F0F00F1CBF00F112
:105A9000C04000F000407047008182838485868783
:105AA00088898B8C8D8E8F919293959697999A9CDD
:105AB0009D9FA0A2A3A5A7A8AAACAEB0B2B3B5B74C
:105AC000B9BCBEC0C2C5C7C9CCCED1D4D7D9DCDF22
:105AD000E2E6E9ECF0F3F7FAFE0000004FEA400CD2
